{
  "contractName": "pollSystem",
  "abi": [
    {
      "inputs": [
        {
          "internalType": "bytes32[]",
          "name": "optionNames",
          "type": "bytes32[]"
        }
      ],
      "stateMutability": "nonpayable",
      "type": "constructor"
    },
    {
      "inputs": [],
      "name": "administrator",
      "outputs": [
        {
          "internalType": "address",
          "name": "",
          "type": "address"
        }
      ],
      "stateMutability": "view",
      "type": "function"
    },
    {
      "inputs": [
        {
          "internalType": "uint256",
          "name": "",
          "type": "uint256"
        }
      ],
      "name": "options",
      "outputs": [
        {
          "internalType": "bytes32",
          "name": "optionName",
          "type": "bytes32"
        },
        {
          "internalType": "uint256",
          "name": "voteCount",
          "type": "uint256"
        }
      ],
      "stateMutability": "view",
      "type": "function"
    },
    {
      "inputs": [
        {
          "internalType": "address",
          "name": "",
          "type": "address"
        }
      ],
      "name": "voters",
      "outputs": [
        {
          "internalType": "uint256",
          "name": "weight",
          "type": "uint256"
        },
        {
          "internalType": "bool",
          "name": "hasVoted",
          "type": "bool"
        },
        {
          "internalType": "address",
          "name": "chosenOption",
          "type": "address"
        },
        {
          "internalType": "uint256",
          "name": "vote",
          "type": "uint256"
        }
      ],
      "stateMutability": "view",
      "type": "function"
    },
    {
      "inputs": [
        {
          "internalType": "address",
          "name": "voter",
          "type": "address"
        }
      ],
      "name": "canVote",
      "outputs": [],
      "stateMutability": "nonpayable",
      "type": "function"
    },
    {
      "inputs": [
        {
          "internalType": "address",
          "name": "to",
          "type": "address"
        }
      ],
      "name": "chosenOption",
      "outputs": [],
      "stateMutability": "nonpayable",
      "type": "function"
    },
    {
      "inputs": [
        {
          "internalType": "uint256",
          "name": "option",
          "type": "uint256"
        }
      ],
      "name": "vote",
      "outputs": [],
      "stateMutability": "nonpayable",
      "type": "function"
    },
    {
      "inputs": [],
      "name": "winningOption",
      "outputs": [
        {
          "internalType": "uint256",
          "name": "winningOption_",
          "type": "uint256"
        }
      ],
      "stateMutability": "view",
      "type": "function"
    },
    {
      "inputs": [],
      "name": "winnerName",
      "outputs": [
        {
          "internalType": "bytes32",
          "name": "winnerName_",
          "type": "bytes32"
        }
      ],
      "stateMutability": "view",
      "type": "function"
    }
  ],
  "bytecode": "0x60806040523480156200001157600080fd5b50604051620013d6380380620013d68339818101604052810190620000379190620002da565b336000806101000a81548173ffffffffffffffffffffffffffffffffffffffff021916908373ffffffffffffffffffffffffffffffffffffffff16021790555060005b81518110156200010e5760026040518060400160405280848481518110620000a757620000a66200032b565b5b6020026020010151815260200160008152509080600181540180825580915050600190039060005260206000209060020201600090919091909150600082015181600001556020820151816001015550508080620001059062000393565b9150506200007a565b5050620003e0565b6000604051905090565b600080fd5b600080fd5b600080fd5b6000601f19601f8301169050919050565b7f4e487b7100000000000000000000000000000000000000000000000000000000600052604160045260246000fd5b6200017a826200012f565b810181811067ffffffffffffffff821117156200019c576200019b62000140565b5b80604052505050565b6000620001b162000116565b9050620001bf82826200016f565b919050565b600067ffffffffffffffff821115620001e257620001e162000140565b5b602082029050602081019050919050565b600080fd5b6000819050919050565b6200020d81620001f8565b81146200021957600080fd5b50565b6000815190506200022d8162000202565b92915050565b60006200024a6200024484620001c4565b620001a5565b9050808382526020820190506020840283018581111562000270576200026f620001f3565b5b835b818110156200029d57806200028888826200021c565b84526020840193505060208101905062000272565b5050509392505050565b600082601f830112620002bf57620002be6200012a565b5b8151620002d184826020860162000233565b91505092915050565b600060208284031215620002f357620002f262000120565b5b600082015167ffffffffffffffff81111562000314576200031362000125565b5b6200032284828501620002a7565b91505092915050565b7f4e487b7100000000000000000000000000000000000000000000000000000000600052603260045260246000fd5b7f4e487b7100000000000000000000000000000000000000000000000000000000600052601160045260246000fd5b6000819050919050565b6000620003a08262000389565b91507fffffffffffffffffffffffffffffffffffffffffffffffffffffffffffffffff8203620003d557620003d46200035a565b5b600182019050919050565b610fe680620003f06000396000f3fe608060405234801561001057600080fd5b50600436106100885760003560e01c8063a3ec138d1161005b578063a3ec138d14610114578063adfaa72e14610147578063e2ba53f014610163578063f53d0a8e1461018157610088565b80630121b93f1461008d578063409e2205146100a95780634fa8094a146100da5780639fde4ef8146100f6575b600080fd5b6100a760048036038101906100a291906109e2565b61019f565b005b6100c360048036038101906100be91906109e2565b6102e5565b6040516100d1929190610a37565b60405180910390f35b6100f460048036038101906100ef9190610abe565b610319565b005b6100fe6106b3565b60405161010b9190610aeb565b60405180910390f35b61012e60048036038101906101299190610abe565b61073b565b60405161013e9493929190610b30565b60405180910390f35b610161600480360381019061015c9190610abe565b610798565b005b61016b61094f565b6040516101789190610b75565b60405180910390f35b610189610983565b6040516101969190610b90565b60405180910390f35b6000600160003373ffffffffffffffffffffffffffffffffffffffff1673ffffffffffffffffffffffffffffffffffffffff16815260200190815260200160002090506000816000015403610229576040517f08c379a000000000000000000000000000000000000000000000000000000000815260040161022090610c08565b60405180910390fd5b8060010160009054906101000a900460ff161561027b576040517f08c379a000000000000000000000000000000000000000000000000000000000815260040161027290610c74565b60405180910390fd5b60018160010160006101000a81548160ff0219169083151502179055508181600201819055508060000154600283815481106102ba576102b9610c94565b5b906000526020600020906002020160010160008282546102da9190610cf2565b925050819055505050565b600281815481106102f557600080fd5b90600052602060002090600202016000915090508060000154908060010154905082565b6000600160003373ffffffffffffffffffffffffffffffffffffffff1673ffffffffffffffffffffffffffffffffffffffff16815260200190815260200160002090508060010160009054906101000a900460ff16156103ae576040517f08c379a00000000000000000000000000000000000000000000000000000000081526004016103a590610d72565b60405180910390fd5b3373ffffffffffffffffffffffffffffffffffffffff168273ffffffffffffffffffffffffffffffffffffffff160361041c576040517f08c379a000000000000000000000000000000000000000000000000000000000815260040161041390610dde565b60405180910390fd5b5b600073ffffffffffffffffffffffffffffffffffffffff16600160008473ffffffffffffffffffffffffffffffffffffffff1673ffffffffffffffffffffffffffffffffffffffff16815260200190815260200160002060010160019054906101000a900473ffffffffffffffffffffffffffffffffffffffff1673ffffffffffffffffffffffffffffffffffffffff161461058b57600160008373ffffffffffffffffffffffffffffffffffffffff1673ffffffffffffffffffffffffffffffffffffffff16815260200190815260200160002060010160019054906101000a900473ffffffffffffffffffffffffffffffffffffffff1691503373ffffffffffffffffffffffffffffffffffffffff168273ffffffffffffffffffffffffffffffffffffffff1603610586576040517f08c379a000000000000000000000000000000000000000000000000000000000815260040161057d90610e4a565b60405180910390fd5b61041d565b60018160010160006101000a81548160ff021916908315150217905550818160010160016101000a81548173ffffffffffffffffffffffffffffffffffffffff021916908373ffffffffffffffffffffffffffffffffffffffff1602179055506000600160008473ffffffffffffffffffffffffffffffffffffffff1673ffffffffffffffffffffffffffffffffffffffff16815260200190815260200160002090508060010160009054906101000a900460ff161561068e578160000154600282600201548154811061066257610661610c94565b5b906000526020600020906002020160010160008282546106829190610cf2565b925050819055506106ae565b81600001548160000160008282546106a69190610cf2565b925050819055505b505050565b6000806000905060005b6002805490508110156107365781600282815481106106df576106de610c94565b5b9060005260206000209060020201600101541115610723576002818154811061070b5761070a610c94565b5b90600052602060002090600202016001015491508092505b808061072e90610e6a565b9150506106bd565b505090565b60016020528060005260406000206000915090508060000154908060010160009054906101000a900460ff16908060010160019054906101000a900473ffffffffffffffffffffffffffffffffffffffff16908060020154905084565b60008054906101000a900473ffffffffffffffffffffffffffffffffffffffff1673ffffffffffffffffffffffffffffffffffffffff163373ffffffffffffffffffffffffffffffffffffffff1614610826576040517f08c379a000000000000000000000000000000000000000000000000000000000815260040161081d90610f24565b60405180910390fd5b600160008273ffffffffffffffffffffffffffffffffffffffff1673ffffffffffffffffffffffffffffffffffffffff16815260200190815260200160002060010160009054906101000a900460ff16156108b6576040517f08c379a00000000000000000000000000000000000000000000000000000000081526004016108ad90610f90565b60405180910390fd5b6000600160008373ffffffffffffffffffffffffffffffffffffffff1673ffffffffffffffffffffffffffffffffffffffff168152602001908152602001600020600001541461090557600080fd5b60018060008373ffffffffffffffffffffffffffffffffffffffff1673ffffffffffffffffffffffffffffffffffffffff1681526020019081526020016000206000018190555050565b6000600261095b6106b3565b8154811061096c5761096b610c94565b5b906000526020600020906002020160000154905090565b60008054906101000a900473ffffffffffffffffffffffffffffffffffffffff1681565b600080fd5b6000819050919050565b6109bf816109ac565b81146109ca57600080fd5b50565b6000813590506109dc816109b6565b92915050565b6000602082840312156109f8576109f76109a7565b5b6000610a06848285016109cd565b91505092915050565b6000819050919050565b610a2281610a0f565b82525050565b610a31816109ac565b82525050565b6000604082019050610a4c6000830185610a19565b610a596020830184610a28565b9392505050565b600073ffffffffffffffffffffffffffffffffffffffff82169050919050565b6000610a8b82610a60565b9050919050565b610a9b81610a80565b8114610aa657600080fd5b50565b600081359050610ab881610a92565b92915050565b600060208284031215610ad457610ad36109a7565b5b6000610ae284828501610aa9565b91505092915050565b6000602082019050610b006000830184610a28565b92915050565b60008115159050919050565b610b1b81610b06565b82525050565b610b2a81610a80565b82525050565b6000608082019050610b456000830187610a28565b610b526020830186610b12565b610b5f6040830185610b21565b610b6c6060830184610a28565b95945050505050565b6000602082019050610b8a6000830184610a19565b92915050565b6000602082019050610ba56000830184610b21565b92915050565b600082825260208201905092915050565b7f486173206e6f20726967687420746f20766f7465000000000000000000000000600082015250565b6000610bf2601483610bab565b9150610bfd82610bbc565b602082019050919050565b60006020820190508181036000830152610c2181610be5565b9050919050565b7f416c726561647920766f7465642e000000000000000000000000000000000000600082015250565b6000610c5e600e83610bab565b9150610c6982610c28565b602082019050919050565b60006020820190508181036000830152610c8d81610c51565b9050919050565b7f4e487b7100000000000000000000000000000000000000000000000000000000600052603260045260246000fd5b7f4e487b7100000000000000000000000000000000000000000000000000000000600052601160045260246000fd5b6000610cfd826109ac565b9150610d08836109ac565b9250828201905080821115610d2057610d1f610cc3565b5b92915050565b7f596f7520616c726561647920766f7465642e0000000000000000000000000000600082015250565b6000610d5c601283610bab565b9150610d6782610d26565b602082019050919050565b60006020820190508181036000830152610d8b81610d4f565b9050919050565b7f53656c662d64656c65676174696f6e20697320646973616c6c6f7765642e0000600082015250565b6000610dc8601e83610bab565b9150610dd382610d92565b602082019050919050565b60006020820190508181036000830152610df781610dbb565b9050919050565b7f466f756e64206c6f6f7020696e2064656c65676174696f6e2e00000000000000600082015250565b6000610e34601983610bab565b9150610e3f82610dfe565b602082019050919050565b60006020820190508181036000830152610e6381610e27565b9050919050565b6000610e75826109ac565b91507fffffffffffffffffffffffffffffffffffffffffffffffffffffffffffffffff8203610ea757610ea6610cc3565b5b600182019050919050565b7f4f6e6c79206368616972706572736f6e2063616e20676976652072696768742060008201527f746f20766f74652e000000000000000000000000000000000000000000000000602082015250565b6000610f0e602883610bab565b9150610f1982610eb2565b604082019050919050565b60006020820190508181036000830152610f3d81610f01565b9050919050565b7f54686520766f74657220616c726561647920766f7465642e0000000000000000600082015250565b6000610f7a601883610bab565b9150610f8582610f44565b602082019050919050565b60006020820190508181036000830152610fa981610f6d565b905091905056fea264697066735822122046319e3074e8e3b63ac14a47af3b22c8a45b1b60746adabfb1fca3a8853998fc64736f6c63430008110033",
  "immutableReferences": {},
  "source": "//SPDX-License-Identifier: UNLICENSED\r\npragma solidity 0.8.17;\r\n\r\n//[\"0x666f6f0000000000000000000000000000000000000000000000000000000000\",\"0x6261720000000000000000000000000000000000000000000000000000000000\"]\r\n\r\ncontract pollSystem\r\n{\r\n    struct Voter //struct containing voter parameters\r\n    {\r\n        uint weight; //???\r\n        bool hasVoted; //true if the voter has voted\r\n        address chosenOption; //address of the option/delegate chosen by the voter\r\n        uint vote; //index of the voted option/delegate\r\n    }\r\n\r\n    struct Options //struct containing the options for the poll\r\n    {\r\n        bytes32 optionName; //name of the option/delegates\r\n        uint voteCount; //number of votes for the option/delegate\r\n    }\r\n\r\n    address public administrator; //owner of the poll\r\n\r\n    mapping(address => Voter) public voters; //mapping of voters\r\n\r\n    Options[] public options; //list of options\r\n    \r\n    constructor(bytes32[] memory optionNames) //executes automatically on start\r\n    {\r\n        administrator = msg.sender; //sets the administrator to the creator of the contract\r\n\r\n        for (uint i = 0; i < optionNames.length; i++) //feeds all the options into the options list while setting the vote count to 0\r\n        {\r\n            options.push(Options({optionName: optionNames[i], voteCount: 0}));\r\n        }  \r\n    }\r\n\r\n    function canVote(address voter) public \r\n    {\r\n        require(msg.sender == administrator,\"Only chairperson can give right to vote.\"); //A person will only be able to vote if the consructor is initialised\r\n        require(!voters[voter].hasVoted,\"The voter already voted.\"); \r\n        require(voters[voter].weight == 0);\r\n        voters[voter].weight = 1;   \r\n    }\r\n\r\n    function chosenOption(address to) public {\r\n        Voter storage sender = voters[msg.sender];\r\n        require(!sender.hasVoted, \"You already voted.\");\r\n        require(to != msg.sender, \"Self-delegation is disallowed.\");\r\n\r\n        while (voters[to].chosenOption != address(0)) {\r\n            to = voters[to].chosenOption;\r\n\r\n            // We found a loop in the delegation, not allowed.\r\n            require(to != msg.sender, \"Found loop in delegation.\");\r\n        }\r\n        sender.hasVoted = true;\r\n        sender.chosenOption = to;\r\n        Voter storage chosenOption_ = voters[to];\r\n        if (chosenOption_.hasVoted) \r\n        {\r\n            options[chosenOption_.vote].voteCount += sender.weight; //??? If the delegate already voted, directly add to the number of votes \r\n        } \r\n        \r\n        else \r\n        {\r\n            //??? If the delegate did not vote yet, add to her weight.\r\n            chosenOption_.weight += sender.weight;\r\n        }\r\n    }\r\n\r\n    function vote(uint option) public {\r\n        Voter storage sender = voters[msg.sender];\r\n        require(sender.weight != 0, \"Has no right to vote\");\r\n        require(!sender.hasVoted, \"Already voted.\");\r\n        sender.hasVoted = true;\r\n        sender.vote = option;\r\n\r\n        // If 'proposal' is out of the range of the array, this will throw automatically and revert all changes.\r\n        options[option].voteCount += sender.weight;\r\n    }\r\n\r\n    /*\r\n     * @dev Computes the winning proposal taking all previous votes into account.\r\n     * @return winningProposal_ index of winning proposal in the proposals array\r\n     */\r\n\r\n    function winningOption() public view\r\n            returns (uint winningOption_)\r\n    {\r\n        uint winningVoteCount = 0;\r\n        for (uint p = 0; p < options.length; p++) {\r\n            if (options[p].voteCount > winningVoteCount) {\r\n                winningVoteCount = options[p].voteCount;\r\n                winningOption_ = p;\r\n            }\r\n        }\r\n    }\r\n\r\n    /*\r\n     * @dev Calls winningProposal() function to get the index of the winner contained in the proposals array and then\r\n     * @return winnerName_ the name of the winner\r\n     */\r\n\r\n    function winnerName() public view\r\n            returns (bytes32 winnerName_)\r\n    {\r\n        winnerName_ = options[winningOption()].optionName;\r\n    }\r\n}",
  "sourcePath": "C:\\Users\\DELL\\Hackathons\\5. 5th Technovation\\blockproffer\\backend\\solidity\\contracts\\voting.sol",
  "compiler": {
    "name": "solc",
    "version": "0.8.17+commit.8df45f5f.Emscripten.clang"
  },
  "schemaVersion": "3.4.11",
  "updatedAt": "2023-01-25T15:35:46.468Z",
  "devdoc": {
    "kind": "dev",
    "methods": {},
    "version": 1
  },
  "userdoc": {
    "kind": "user",
    "methods": {},
    "version": 1
  }
}