{
  "contractName": "pollSystem",
  "abi": [
    {
      "inputs": [
        {
          "internalType": "uint8[]",
          "name": "optionNames",
          "type": "uint8[]"
        }
      ],
      "stateMutability": "nonpayable",
      "type": "constructor"
    },
    {
      "inputs": [],
      "name": "administrator",
      "outputs": [
        {
          "internalType": "address",
          "name": "",
          "type": "address"
        }
      ],
      "stateMutability": "view",
      "type": "function"
    },
    {
      "inputs": [
        {
          "internalType": "uint256",
          "name": "",
          "type": "uint256"
        }
      ],
      "name": "options",
      "outputs": [
        {
          "internalType": "uint8",
          "name": "optionNumber",
          "type": "uint8"
        },
        {
          "internalType": "uint256",
          "name": "voteCount",
          "type": "uint256"
        }
      ],
      "stateMutability": "view",
      "type": "function"
    },
    {
      "inputs": [
        {
          "internalType": "address",
          "name": "",
          "type": "address"
        }
      ],
      "name": "voters",
      "outputs": [
        {
          "internalType": "bool",
          "name": "hasVoted",
          "type": "bool"
        },
        {
          "internalType": "uint8",
          "name": "chosenOption",
          "type": "uint8"
        },
        {
          "internalType": "uint256",
          "name": "votes",
          "type": "uint256"
        }
      ],
      "stateMutability": "view",
      "type": "function"
    },
    {
      "inputs": [
        {
          "internalType": "address",
          "name": "voter",
          "type": "address"
        }
      ],
      "name": "canVote",
      "outputs": [],
      "stateMutability": "nonpayable",
      "type": "function"
    },
    {
      "inputs": [
        {
          "internalType": "uint8",
          "name": "_optionNumber",
          "type": "uint8"
        }
      ],
      "name": "chosenOption",
      "outputs": [],
      "stateMutability": "nonpayable",
      "type": "function"
    },
    {
      "inputs": [],
      "name": "showResult",
      "outputs": [],
      "stateMutability": "view",
      "type": "function"
    }
  ],
  "bytecode": "0x60806040523480156200001157600080fd5b5060405162000d1f38038062000d1f8339818101604052810190620000379190620002f7565b336000806101000a81548173ffffffffffffffffffffffffffffffffffffffff021916908373ffffffffffffffffffffffffffffffffffffffff16021790555060005b8151811015620001285760026040518060400160405280848481518110620000a757620000a662000348565b5b602002602001015160ff1681526020016000815250908060018154018082558091505060019003906000526020600020906002020160009091909190915060008201518160000160006101000a81548160ff021916908360ff16021790555060208201518160010155505080806200011f90620003b0565b9150506200007a565b5050620003fd565b6000604051905090565b600080fd5b600080fd5b600080fd5b6000601f19601f8301169050919050565b7f4e487b7100000000000000000000000000000000000000000000000000000000600052604160045260246000fd5b620001948262000149565b810181811067ffffffffffffffff82111715620001b657620001b56200015a565b5b80604052505050565b6000620001cb62000130565b9050620001d9828262000189565b919050565b600067ffffffffffffffff821115620001fc57620001fb6200015a565b5b602082029050602081019050919050565b600080fd5b600060ff82169050919050565b6200022a8162000212565b81146200023657600080fd5b50565b6000815190506200024a816200021f565b92915050565b6000620002676200026184620001de565b620001bf565b905080838252602082019050602084028301858111156200028d576200028c6200020d565b5b835b81811015620002ba5780620002a5888262000239565b8452602084019350506020810190506200028f565b5050509392505050565b600082601f830112620002dc57620002db62000144565b5b8151620002ee84826020860162000250565b91505092915050565b60006020828403121562000310576200030f6200013a565b5b600082015167ffffffffffffffff8111156200033157620003306200013f565b5b6200033f84828501620002c4565b91505092915050565b7f4e487b7100000000000000000000000000000000000000000000000000000000600052603260045260246000fd5b7f4e487b7100000000000000000000000000000000000000000000000000000000600052601160045260246000fd5b6000819050919050565b6000620003bd82620003a6565b91507fffffffffffffffffffffffffffffffffffffffffffffffffffffffffffffffff8203620003f257620003f162000377565b5b600182019050919050565b610912806200040d6000396000f3fe608060405234801561001057600080fd5b50600436106100625760003560e01c806333ee3131146100675780633f95ebfb14610071578063409e22051461008d578063a3ec138d146100be578063adfaa72e146100f0578063f53d0a8e1461010c575b600080fd5b61006f61012a565b005b61008b600480360381019061008691906104f1565b61012c565b005b6100a760048036038101906100a29190610554565b610253565b6040516100b592919061059f565b60405180910390f35b6100d860048036038101906100d39190610626565b610294565b6040516100e79392919061066e565b60405180910390f35b61010a60048036038101906101059190610626565b6102d8565b005b61011461048f565b60405161012191906106b4565b60405180910390f35b565b6000600160003373ffffffffffffffffffffffffffffffffffffffff1673ffffffffffffffffffffffffffffffffffffffff16815260200190815260200160002090508060000160009054906101000a900460ff16156101c1576040517f08c379a00000000000000000000000000000000000000000000000000000000081526004016101b89061072c565b60405180910390fd5b818160000160016101000a81548160ff021916908360ff160217905550806001015460028260000160019054906101000a900460ff1660ff168154811061020b5761020a61074c565b5b9060005260206000209060020201600101600082825461022b91906107aa565b9250508190555060018160000160006101000a81548160ff0219169083151502179055505050565b6002818154811061026357600080fd5b90600052602060002090600202016000915090508060000160009054906101000a900460ff16908060010154905082565b60016020528060005260406000206000915090508060000160009054906101000a900460ff16908060000160019054906101000a900460ff16908060010154905083565b60008054906101000a900473ffffffffffffffffffffffffffffffffffffffff1673ffffffffffffffffffffffffffffffffffffffff163373ffffffffffffffffffffffffffffffffffffffff1614610366576040517f08c379a000000000000000000000000000000000000000000000000000000000815260040161035d90610850565b60405180910390fd5b600160008273ffffffffffffffffffffffffffffffffffffffff1673ffffffffffffffffffffffffffffffffffffffff16815260200190815260200160002060000160009054906101000a900460ff16156103f6576040517f08c379a00000000000000000000000000000000000000000000000000000000081526004016103ed906108bc565b60405180910390fd5b6000600160008373ffffffffffffffffffffffffffffffffffffffff1673ffffffffffffffffffffffffffffffffffffffff168152602001908152602001600020600101541461044557600080fd5b60018060008373ffffffffffffffffffffffffffffffffffffffff1673ffffffffffffffffffffffffffffffffffffffff1681526020019081526020016000206001018190555050565b60008054906101000a900473ffffffffffffffffffffffffffffffffffffffff1681565b600080fd5b600060ff82169050919050565b6104ce816104b8565b81146104d957600080fd5b50565b6000813590506104eb816104c5565b92915050565b600060208284031215610507576105066104b3565b5b6000610515848285016104dc565b91505092915050565b6000819050919050565b6105318161051e565b811461053c57600080fd5b50565b60008135905061054e81610528565b92915050565b60006020828403121561056a576105696104b3565b5b60006105788482850161053f565b91505092915050565b61058a816104b8565b82525050565b6105998161051e565b82525050565b60006040820190506105b46000830185610581565b6105c16020830184610590565b9392505050565b600073ffffffffffffffffffffffffffffffffffffffff82169050919050565b60006105f3826105c8565b9050919050565b610603816105e8565b811461060e57600080fd5b50565b600081359050610620816105fa565b92915050565b60006020828403121561063c5761063b6104b3565b5b600061064a84828501610611565b91505092915050565b60008115159050919050565b61066881610653565b82525050565b6000606082019050610683600083018661065f565b6106906020830185610581565b61069d6040830184610590565b949350505050565b6106ae816105e8565b82525050565b60006020820190506106c960008301846106a5565b92915050565b600082825260208201905092915050565b7f596f7520616c726561647920766f7465642e0000000000000000000000000000600082015250565b60006107166012836106cf565b9150610721826106e0565b602082019050919050565b6000602082019050818103600083015261074581610709565b9050919050565b7f4e487b7100000000000000000000000000000000000000000000000000000000600052603260045260246000fd5b7f4e487b7100000000000000000000000000000000000000000000000000000000600052601160045260246000fd5b60006107b58261051e565b91506107c08361051e565b92508282019050808211156107d8576107d761077b565b5b92915050565b7f4f6e6c7920746865207365727665722063616e20696e6974696174652074686560008201527f20636f6e74726163740000000000000000000000000000000000000000000000602082015250565b600061083a6029836106cf565b9150610845826107de565b604082019050919050565b600060208201905081810360008301526108698161082d565b9050919050565b7f54686520766f74657220616c726561647920766f7465642e0000000000000000600082015250565b60006108a66018836106cf565b91506108b182610870565b602082019050919050565b600060208201905081810360008301526108d581610899565b905091905056fea2646970667358221220d2b608a6e2f469f1cdde84d2ffe56979594ed86a44b1eb3d370e4509a013bfc264736f6c63430008110033",
  "immutableReferences": {},
  "source": "//SPDX-License-Identifier: UNLICENSED\r\npragma solidity 0.8.17;\r\n\r\ncontract pollSystem\r\n{\r\n    struct Voter //struct containing voter parameters\r\n    {\r\n        bool hasVoted; //true if the voter has voted\r\n        uint8 chosenOption; //address of the option/delegate chosen by the voter\r\n        uint votes; //if votes != 0, the user has already voted or has tampered with the blockchain somehow\r\n    }\r\n\r\n    struct Options //struct containing the options for the poll\r\n    {\r\n        uint8 optionNumber; //address of the option/delegate\r\n        uint voteCount; //number of votes for the option/delegate\r\n    }\r\n\r\n    address public administrator; //owner of the poll\r\n\r\n    mapping(address => Voter) public voters; //dictionary of voters with their addresses as keys\r\n\r\n    Options[] public options; //list of options\r\n\r\n    constructor(uint8[] memory optionNames) //executes automatically on start\r\n    {\r\n        administrator = msg.sender; //sets the administrator to one which sends the constructor its initial arguement\r\n\r\n        for (uint i = 0; i < optionNames.length; i++) //feeds all the options into the options list while setting the vote count to 0\r\n        {\r\n            options.push(Options({optionNumber: optionNames[i], voteCount: 0})); //pushes the option into the list\r\n        }  \r\n    }\r\n\r\n    function canVote(address voter) public \r\n    {\r\n        require(msg.sender == administrator,\"Only the server can initiate the contract\"); //A person will only be able to vote if the constructor is initialised\r\n        require(!voters[voter].hasVoted,\"The voter already voted.\"); \r\n        require(voters[voter].votes == 0); //should have 0 votes by default\r\n        \r\n        voters[voter].votes = 1;   \r\n    }\r\n\r\n    function chosenOption(uint8 _optionNumber) public \r\n    {\r\n        Voter storage sender = voters[msg.sender]; //sets the sender to the voter who called the function\r\n        require(!sender.hasVoted, \"You already voted.\");\r\n\r\n        sender.chosenOption = _optionNumber;\r\n        options[sender.chosenOption].voteCount += sender.votes;\r\n        sender.hasVoted = true;\r\n    }\r\n\r\n    function showResult() public view\r\n    {\r\n        \r\n    }\r\n}",
  "sourcePath": "C:\\Users\\DELL\\Hackathons\\5. 5th Technovation\\blockproffer\\backend\\solidity\\contracts\\voting.sol",
  "compiler": {
    "name": "solc",
    "version": "0.8.17+commit.8df45f5f.Emscripten.clang"
  },
  "schemaVersion": "3.4.11",
  "updatedAt": "2023-01-29T14:07:56.251Z",
  "devdoc": {
    "kind": "dev",
    "methods": {},
    "version": 1
  },
  "userdoc": {
    "kind": "user",
    "methods": {},
    "version": 1
  }
}